{
  "contractName": "Arithmetica",
  "abi": [
    {
      "inputs": [],
      "payable": false,
      "stateMutability": "nonpayable",
      "type": "constructor"
    },
    {
      "constant": false,
      "inputs": [
        {
          "name": "name",
          "type": "string"
        },
        {
          "name": "evaluation",
          "type": "string"
        },
        {
          "name": "assertions",
          "type": "string"
        },
        {
          "name": "resultsLocation",
          "type": "string"
        }
      ],
      "name": "createProblem",
      "outputs": [],
      "payable": false,
      "stateMutability": "nonpayable",
      "type": "function"
    },
    {
      "constant": false,
      "inputs": [
        {
          "name": "name",
          "type": "string"
        },
        {
          "name": "evaluation",
          "type": "string"
        },
        {
          "name": "assertions",
          "type": "string"
        },
        {
          "name": "resultsLocation",
          "type": "string"
        }
      ],
      "name": "updateProblem",
      "outputs": [],
      "payable": false,
      "stateMutability": "nonpayable",
      "type": "function"
    },
    {
      "constant": false,
      "inputs": [
        {
          "name": "name",
          "type": "string"
        }
      ],
      "name": "deleteProblem",
      "outputs": [],
      "payable": false,
      "stateMutability": "nonpayable",
      "type": "function"
    },
    {
      "constant": true,
      "inputs": [],
      "name": "getProblemCount",
      "outputs": [
        {
          "name": "",
          "type": "uint256"
        }
      ],
      "payable": false,
      "stateMutability": "view",
      "type": "function"
    },
    {
      "constant": true,
      "inputs": [
        {
          "name": "index",
          "type": "uint256"
        }
      ],
      "name": "getProblemName",
      "outputs": [
        {
          "name": "",
          "type": "string"
        }
      ],
      "payable": false,
      "stateMutability": "view",
      "type": "function"
    },
    {
      "constant": true,
      "inputs": [
        {
          "name": "name",
          "type": "string"
        }
      ],
      "name": "getOwner",
      "outputs": [
        {
          "name": "",
          "type": "address"
        }
      ],
      "payable": false,
      "stateMutability": "view",
      "type": "function"
    },
    {
      "constant": true,
      "inputs": [
        {
          "name": "name",
          "type": "string"
        }
      ],
      "name": "getEvaluation",
      "outputs": [
        {
          "name": "",
          "type": "string"
        }
      ],
      "payable": false,
      "stateMutability": "view",
      "type": "function"
    },
    {
      "constant": true,
      "inputs": [
        {
          "name": "name",
          "type": "string"
        }
      ],
      "name": "getAssertions",
      "outputs": [
        {
          "name": "",
          "type": "string"
        }
      ],
      "payable": false,
      "stateMutability": "view",
      "type": "function"
    },
    {
      "constant": true,
      "inputs": [
        {
          "name": "name",
          "type": "string"
        }
      ],
      "name": "getChecksum",
      "outputs": [
        {
          "name": "",
          "type": "bytes32"
        }
      ],
      "payable": false,
      "stateMutability": "view",
      "type": "function"
    },
    {
      "constant": true,
      "inputs": [
        {
          "name": "name",
          "type": "string"
        }
      ],
      "name": "getResultsLocation",
      "outputs": [
        {
          "name": "",
          "type": "string"
        }
      ],
      "payable": false,
      "stateMutability": "view",
      "type": "function"
    }
  ],
  "bytecode": "0x608060405234801561001057600080fd5b5060008054600160a060020a03191633179055611624806100326000396000f3006080604052600436106100a35763ffffffff7c01000000000000000000000000000000000000000000000000000000006000350416630cbd945281146100a8578063310d7f40146101bd57806346bb1edd1461024a5780634aaf4a121461035d578063500eec7b146103df5780635f1debb4146104065780637e6301fc1461045f578063a52e640e146104b8578063ede76cb514610511578063f17f1d0a1461056a575b600080fd5b3480156100b457600080fd5b506040805160206004803580820135601f81018490048402850184019095528484526101bb94369492936024939284019190819084018382808284375050604080516020601f89358b018035918201839004830284018301909452808352979a99988101979196509182019450925082915084018382808284375050604080516020601f89358b018035918201839004830284018301909452808352979a99988101979196509182019450925082915084018382808284375050604080516020601f89358b018035918201839004830284018301909452808352979a9998810197919650918201945092508291508401838280828437509497506105c39650505050505050565b005b3480156101c957600080fd5b506101d560043561090e565b6040805160208082528351818301528351919283929083019185019080838360005b8381101561020f5781810151838201526020016101f7565b50505050905090810190601f16801561023c5780820380516001836020036101000a031916815260200191505b509250505060405180910390f35b34801561025657600080fd5b506040805160206004803580820135601f81018490048402850184019095528484526101bb94369492936024939284019190819084018382808284375050604080516020601f89358b018035918201839004830284018301909452808352979a99988101979196509182019450925082915084018382808284375050604080516020601f89358b018035918201839004830284018301909452808352979a99988101979196509182019450925082915084018382808284375050604080516020601f89358b018035918201839004830284018301909452808352979a9998810197919650918201945092508291508401838280828437509497506109d49650505050505050565b34801561036957600080fd5b506040805160206004803580820135601f81018490048402850184019095528484526103b6943694929360249392840191908190840183828082843750949750610deb9650505050505050565b6040805173ffffffffffffffffffffffffffffffffffffffff9092168252519081900360200190f35b3480156103eb57600080fd5b506103f4610e69565b60408051918252519081900360200190f35b34801561041257600080fd5b506040805160206004803580820135601f81018490048402850184019095528484526101bb943694929360249392840191908190840183828082843750949750610e709650505050505050565b34801561046b57600080fd5b506040805160206004803580820135601f81018490048402850184019095528484526101d59436949293602493928401919081908401838280828437509497506110359650505050505050565b3480156104c457600080fd5b506040805160206004803580820135601f81018490048402850184019095528484526103f49436949293602493928401919081908401838280828437509497506111099650505050505050565b34801561051d57600080fd5b506040805160206004803580820135601f81018490048402850184019095528484526101d59436949293602493928401919081908401838280828437509497506111889650505050505050565b34801561057657600080fd5b506040805160206004803580820135601f81018490048402850184019095528484526101d594369492936024939284019190819084018382808284375094975061125c9650505050505050565b6105cc84611331565b15156105d757600080fd5b6001846040518082805190602001908083835b602083106106095780518252601f1990920191602091820191016105ea565b51815160209384036101000a600019018019909216911617905292019485525060405193849003019092205473ffffffffffffffffffffffffffffffffffffffff163314915061065a905057600080fd5b826001856040518082805190602001908083835b6020831061068d5780518252601f19909201916020918201910161066e565b6001836020036101000a038019825116818451168082178552505050505050905001915050908152602001604051809103902060010190805190602001906106d692919061145d565b50816001856040518082805190602001908083835b6020831061070a5780518252601f1990920191602091820191016106eb565b51815160209384036101000a6000190180199092169116179052920194855250604051938490038101909320845161074f95600290920194919091019250905061145d565b50806001856040518082805190602001908083835b602083106107835780518252601f199092019160209182019101610764565b51815160209384036101000a600019018019909216911617905292019485525060405193849003810190932084516107c895600490920194919091019250905061145d565b50600283836040518083805190602001908083835b602083106107fc5780518252601f1990920191602091820191016107dd565b51815160209384036101000a600019018019909216911617905285519190930192850191508083835b602083106108445780518252601f199092019160209182019101610825565b6001836020036101000a038019825116818451168082178552505050505050905001925050506020604051808303816000865af1158015610889573d6000803e3d6000fd5b5050506040513d602081101561089e57600080fd5b505160405185516001918791819060208401908083835b602083106108d45780518252601f1990920191602091820191016108b5565b51815160209384036101000a6000190180199092169116179052920194855250604051938490030190922060030192909255505050505050565b6060600082101561091e57600080fd5b600254821061092c57600080fd5b600280548390811061093a57fe5b600091825260209182902001805460408051601f60026000196101006001871615020190941693909304928301859004850281018501909152818152928301828280156109c85780601f1061099d576101008083540402835291602001916109c8565b820191906000526020600020905b8154815290600101906020018083116109ab57829003601f168201915b50505050509050919050565b6109dd84611331565b156109e757600080fd5b60028054600181018083556000929092528551610a2b917f405787fa12a823e0f2b7631cc41b3ba8828b3321ca811111fa75cd3aa3bb5ace0190602088019061145d565b5050336001856040518082805190602001908083835b60208310610a605780518252601f199092019160209182019101610a41565b51815160209384036101000a60001901801990921691161790529201948552506040519384900381018420805473ffffffffffffffffffffffffffffffffffffffff191673ffffffffffffffffffffffffffffffffffffffff9690961695909517909455505085518592600192889290918291908401908083835b60208310610afa5780518252601f199092019160209182019101610adb565b6001836020036101000a03801982511681845116808217855250505050505090500191505090815260200160405180910390206001019080519060200190610b4392919061145d565b50816001856040518082805190602001908083835b60208310610b775780518252601f199092019160209182019101610b58565b51815160209384036101000a60001901801990921691161790529201948552506040519384900381019093208451610bbc95600290920194919091019250905061145d565b50600283836040518083805190602001908083835b60208310610bf05780518252601f199092019160209182019101610bd1565b51815160209384036101000a600019018019909216911617905285519190930192850191508083835b60208310610c385780518252601f199092019160209182019101610c19565b6001836020036101000a038019825116818451168082178552505050505050905001925050506020604051808303816000865af1158015610c7d573d6000803e3d6000fd5b5050506040513d6020811015610c9257600080fd5b505160405185516001918791819060208401908083835b60208310610cc85780518252601f199092019160209182019101610ca9565b51815160209384036101000a6000190180199092169116179052920194855250604051938490038101842060030194909455505085518392600192889290918291908401908083835b60208310610d305780518252601f199092019160209182019101610d11565b51815160209384036101000a60001901801990921691161790529201948552506040519384900381019093208451610d7595600490920194919091019250905061145d565b506001600280549050036001856040518082805190602001908083835b60208310610db15780518252601f199092019160209182019101610d92565b51815160209384036101000a6000190180199092169116179052920194855250604051938490030190922060050192909255505050505050565b60006001826040518082805190602001908083835b60208310610e1f5780518252601f199092019160209182019101610e00565b51815160209384036101000a600019018019909216911617905292019485525060405193849003019092205473ffffffffffffffffffffffffffffffffffffffff16949350505050565b6002545b90565b6000610e7b82611331565b1515610e8657600080fd5b6001826040518082805190602001908083835b60208310610eb85780518252601f199092019160209182019101610e99565b51815160209384036101000a600019018019909216911617905292019485525060405193849003019092205473ffffffffffffffffffffffffffffffffffffffff1633149150610f09905057600080fd5b6001826040518082805190602001908083835b60208310610f3b5780518252601f199092019160209182019101610f1c565b51815160209384036101000a60001901801990921691161790529201948552506040519384900381018420600501548651909550600194879450925082918401908083835b60208310610f9f5780518252601f199092019160209182019101610f80565b51815160209384036101000a60001901801990921691161790529201948552506040519384900301909220805473ffffffffffffffffffffffffffffffffffffffff19168155915060009050610ff860018301826114db565b6110066002830160006114db565b600382016000905560048201600061101e91906114db565b60058201600090555050611031816113b1565b5050565b606061104082611331565b151561104b57600080fd5b6001826040518082805190602001908083835b6020831061107d5780518252601f19909201916020918201910161105e565b518151600019602094850361010090810a820192831692199390931691909117909252949092019687526040805197889003820188206004018054601f60026001831615909802909501169590950492830182900482028801820190528187529294509250508301828280156109c85780601f1061099d576101008083540402835291602001916109c8565b600061111482611331565b151561111f57600080fd5b6001826040518082805190602001908083835b602083106111515780518252601f199092019160209182019101611132565b51815160209384036101000a6000190180199092169116179052920194855250604051938490030190922060030154949350505050565b606061119382611331565b151561119e57600080fd5b6001826040518082805190602001908083835b602083106111d05780518252601f1990920191602091820191016111b1565b518151600019602094850361010090810a8201928316921993909316919091179092529490920196875260408051978890038201882060029081018054601f6001821615909802909501909416049485018290048202880182019052838752909450919250508301828280156109c85780601f1061099d576101008083540402835291602001916109c8565b606061126782611331565b151561127257600080fd5b6001826040518082805190602001908083835b602083106112a45780518252601f199092019160209182019101611285565b518151600019602094850361010090810a8201928316921993909316919091179092529490920196875260408051978890038201882060019081018054601f600293821615909802909501909416049485018290048202880182019052838752909450919250508301828280156109c85780601f1061099d576101008083540402835291602001916109c8565b60006001826040518082805190602001908083835b602083106113655780518252601f199092019160209182019101611346565b51815160209384036101000a600019018019909216911617905292019485525060405193849003019092205473ffffffffffffffffffffffffffffffffffffffff161515949350505050565b805b6002546000190181101561141d5760028054600183019081106113d257fe5b906000526020600020016002828154811015156113eb57fe5b906000526020600020019080546001816001161561010002031660029004611414929190611522565b506001016113b3565b60028054600019810190811061142f57fe5b90600052602060002001600061144591906114db565b6002805490611458906000198301611597565b505050565b828054600181600116156101000203166002900490600052602060002090601f016020900481019282601f1061149e57805160ff19168380011785556114cb565b828001600101855582156114cb579182015b828111156114cb5782518255916020019190600101906114b0565b506114d79291506115bb565b5090565b50805460018160011615610100020316600290046000825580601f10611501575061151f565b601f01602090049060005260206000209081019061151f91906115bb565b50565b828054600181600116156101000203166002900490600052602060002090601f016020900481019282601f1061155b57805485556114cb565b828001600101855582156114cb57600052602060002091601f016020900482015b828111156114cb57825482559160010191906001019061157c565b815481835581811115611458576000838152602090206114589181019083016115d5565b610e6d91905b808211156114d757600081556001016115c1565b610e6d91905b808211156114d75760006115ef82826114db565b506001016115db5600a165627a7a7230582000f51b3edf2d44739a77d80c37161446288833b8c4f3ad80da28c1f71aef27a90029",
  "source": "pragma solidity ^0.4.17;\ncontract Arithmetica {\n    address owner;\n\n    function Arithmetica() public {\n        owner = msg.sender;\n    }\n\n    struct MathTemplate {\n        address owner;\n        string evaluation;\n        string assertions;\n\n        bytes32 checksum;\n        string resultsLocation;\n        uint index;\n    }\n    mapping(string => MathTemplate) mathProblems;\n    string[] problems;\n\n    //////////////////////////////////////////////////////////////////////////////////\n    function createProblem(string name, string evaluation, string assertions, string resultsLocation) public {\n        require(!problemExists(name));\n\n        problems.push(name);\n        mathProblems[name].owner = msg.sender;\n        mathProblems[name].evaluation = evaluation;\n        mathProblems[name].assertions = assertions;\n\n        mathProblems[name].checksum = sha256(evaluation, assertions);\n        mathProblems[name].resultsLocation = resultsLocation;\n        mathProblems[name].index = problems.length-1;\n    }\n\n    function updateProblem(string name, string evaluation, string assertions, string resultsLocation) public {\n        require(problemExists(name));\n        require(msg.sender==mathProblems[name].owner);\n\n        mathProblems[name].evaluation = evaluation;\n        mathProblems[name].assertions = assertions;\n        mathProblems[name].resultsLocation = resultsLocation;\n        mathProblems[name].checksum = sha256(evaluation, assertions);\n    }\n\n    function deleteProblem(string name) public {\n        require(problemExists(name));\n        require(msg.sender==mathProblems[name].owner);\n        uint index = mathProblems[name].index;\n        delete mathProblems[name];\n        removeProblem(index);\n    }\n\n    //////////////////////////////////////////////////////////////////////////////////\n\n    function getProblemCount() public constant returns (uint) {\n        return problems.length;\n    }\n\n    function getProblemName(uint index) public constant returns (string) {\n        require(index >= 0);\n        require(index < problems.length);\n        return problems[index];\n    }\n\n    //////////////////////////////////////////////////////////////////////////////////\n\n    function getOwner(string name) public view returns (address) {\n        return mathProblems[name].owner;\n    }\n\n    function getEvaluation(string name) public view returns (string) {\n        require(problemExists(name));\n        return mathProblems[name].evaluation;\n    }\n\n    function getAssertions(string name) public view returns (string) {\n        require(problemExists(name));\n        return mathProblems[name].assertions;\n    }\n\n    function getChecksum(string name) public view returns (bytes32) {\n        require(problemExists(name));\n        return mathProblems[name].checksum;\n    }\n\n    function getResultsLocation(string name) public view returns (string) {\n        require(problemExists(name));\n        return mathProblems[name].resultsLocation;\n    }\n\n    /////////////////////////////////////////////////////////////////////////////////\n\n    function problemExists(string name) private view returns (bool) {\n        return (mathProblems[name].owner!=0x0);\n    }\n\n    function removeProblem(uint index) private {\n        for (uint i = index; i<problems.length-1; i++){\n            problems[i] = problems[i+1];\n        }\n        delete problems[problems.length-1];\n        problems.length--;\n    }\n}\n\n",
  "sourcePath": "/Users/jonny/projects/arithmetica/arithmetica/sol/contracts/Arithmetica.sol",
  "compiler": {
    "name": "solc",
    "version": "0.4.24+commit.e67f0147.Emscripten.clang"
  },
  "schemaVersion": "2.0.0",
  "updatedAt": "2018-06-21T18:29:57.792Z"
}