{
  "contractName": "Arithmetica",
  "abi": [
    {
      "constant": false,
      "inputs": [
        {
          "name": "name",
          "type": "string"
        },
        {
          "name": "evaluation",
          "type": "string"
        },
        {
          "name": "assertions",
          "type": "string"
        },
        {
          "name": "resultsLocation",
          "type": "string"
        }
      ],
      "name": "updateProblem",
      "outputs": [],
      "payable": false,
      "stateMutability": "nonpayable",
      "type": "function"
    },
    {
      "constant": true,
      "inputs": [
        {
          "name": "index",
          "type": "uint256"
        }
      ],
      "name": "getProblemName",
      "outputs": [
        {
          "name": "",
          "type": "string"
        }
      ],
      "payable": false,
      "stateMutability": "view",
      "type": "function"
    },
    {
      "constant": false,
      "inputs": [
        {
          "name": "name",
          "type": "string"
        },
        {
          "name": "evaluation",
          "type": "string"
        },
        {
          "name": "assertions",
          "type": "string"
        },
        {
          "name": "resultsLocation",
          "type": "string"
        }
      ],
      "name": "createProblem",
      "outputs": [],
      "payable": false,
      "stateMutability": "nonpayable",
      "type": "function"
    },
    {
      "constant": true,
      "inputs": [
        {
          "name": "name",
          "type": "string"
        }
      ],
      "name": "getOwner",
      "outputs": [
        {
          "name": "",
          "type": "address"
        }
      ],
      "payable": false,
      "stateMutability": "view",
      "type": "function"
    },
    {
      "constant": true,
      "inputs": [],
      "name": "getProblemCount",
      "outputs": [
        {
          "name": "",
          "type": "uint256"
        }
      ],
      "payable": false,
      "stateMutability": "view",
      "type": "function"
    },
    {
      "constant": false,
      "inputs": [
        {
          "name": "name",
          "type": "string"
        }
      ],
      "name": "deleteProblem",
      "outputs": [],
      "payable": false,
      "stateMutability": "nonpayable",
      "type": "function"
    },
    {
      "constant": true,
      "inputs": [
        {
          "name": "name",
          "type": "string"
        }
      ],
      "name": "getResultsLocation",
      "outputs": [
        {
          "name": "",
          "type": "string"
        }
      ],
      "payable": false,
      "stateMutability": "view",
      "type": "function"
    },
    {
      "constant": true,
      "inputs": [
        {
          "name": "name",
          "type": "string"
        }
      ],
      "name": "getChecksum",
      "outputs": [
        {
          "name": "",
          "type": "bytes32"
        }
      ],
      "payable": false,
      "stateMutability": "view",
      "type": "function"
    },
    {
      "constant": true,
      "inputs": [
        {
          "name": "name",
          "type": "string"
        }
      ],
      "name": "getAssertions",
      "outputs": [
        {
          "name": "",
          "type": "string"
        }
      ],
      "payable": false,
      "stateMutability": "view",
      "type": "function"
    },
    {
      "constant": true,
      "inputs": [
        {
          "name": "name",
          "type": "string"
        }
      ],
      "name": "getEvaluation",
      "outputs": [
        {
          "name": "",
          "type": "string"
        }
      ],
      "payable": false,
      "stateMutability": "view",
      "type": "function"
    },
    {
      "inputs": [],
      "payable": false,
      "stateMutability": "nonpayable",
      "type": "constructor"
    }
  ],
  "bytecode": "0x6060604052341561000f57600080fd5b60008054600160a060020a033316600160a060020a03199091161790556114eb8061003b6000396000f3006060604052600436106100a35763ffffffff7c01000000000000000000000000000000000000000000000000000000006000350416630cbd945281146100a8578063310d7f40146101c157806346bb1edd1461024e5780634aaf4a1214610365578063500eec7b146103d25780635f1debb4146103f75780637e6301fc14610448578063a52e640e14610499578063ede76cb5146104ea578063f17f1d0a1461053b575b600080fd5b34156100b357600080fd5b6101bf60046024813581810190830135806020601f8201819004810201604051908101604052818152929190602084018383808284378201915050505050509190803590602001908201803590602001908080601f01602080910402602001604051908101604052818152929190602084018383808284378201915050505050509190803590602001908201803590602001908080601f01602080910402602001604051908101604052818152929190602084018383808284378201915050505050509190803590602001908201803590602001908080601f01602080910402602001604051908101604052818152929190602084018383808284375094965061058c95505050505050565b005b34156101cc57600080fd5b6101d76004356108d4565b60405160208082528190810183818151815260200191508051906020019080838360005b838110156102135780820151838201526020016101fb565b50505050905090810190601f1680156102405780820380516001836020036101000a031916815260200191505b509250505060405180910390f35b341561025957600080fd5b6101bf60046024813581810190830135806020601f8201819004810201604051908101604052818152929190602084018383808284378201915050505050509190803590602001908201803590602001908080601f01602080910402602001604051908101604052818152929190602084018383808284378201915050505050509190803590602001908201803590602001908080601f01602080910402602001604051908101604052818152929190602084018383808284378201915050505050509190803590602001908201803590602001908080601f0160208091040260200160405190810160405281815292919060208401838380828437509496506109b195505050505050565b341561037057600080fd5b6103b660046024813581810190830135806020601f82018190048102016040519081016040528181529291906020840183838082843750949650610d3b95505050505050565b604051600160a060020a03909116815260200160405180910390f35b34156103dd57600080fd5b6103e5610dc7565b60405190815260200160405180910390f35b341561040257600080fd5b6101bf60046024813581810190830135806020601f82018190048102016040519081016040528181529291906020840183838082843750949650610dce95505050505050565b341561045357600080fd5b6101d760046024813581810190830135806020601f82018190048102016040519081016040528181529291906020840183838082843750949650610fbb95505050505050565b34156104a457600080fd5b6103e560046024813581810190830135806020601f820181900481020160405190810160405281815292919060208401838380828437509496506110a895505050505050565b34156104f557600080fd5b6101d760046024813581810190830135806020601f8201819004810201604051908101604052818152929190602084018383808284375094965061112e95505050505050565b341561054657600080fd5b6101d760046024813581810190830135806020601f8201819004810201604051908101604052818152929190602084018383808284375094965061121b95505050505050565b61059584611308565b15156105a057600080fd5b6001846040518082805190602001908083835b602083106105d25780518252601f1990920191602091820191016105b3565b6001836020036101000a0380198251168184511680821785525050505050509050019150509081526020016040519081900390205433600160a060020a0390811691161461061f57600080fd5b826001856040518082805190602001908083835b602083106106525780518252601f199092019160209182019101610633565b6001836020036101000a0380198251168184511680821785525050505050509050019150509081526020016040518091039020600101908051610699929160200190611382565b50816001856040518082805190602001908083835b602083106106cd5780518252601f1990920191602091820191016106ae565b6001836020036101000a0380198251168184511680821785525050505050509050019150509081526020016040518091039020600201908051610714929160200190611382565b50806001856040518082805190602001908083835b602083106107485780518252601f199092019160209182019101610729565b6001836020036101000a038019825116818451168082178552505050505050905001915050908152602001604051809103902060040190805161078f929160200190611382565b50600283836000604051602001526040518083805190602001908083835b602083106107cc5780518252601f1990920191602091820191016107ad565b6001836020036101000a038019825116818451161790925250505091909101905082805190602001908083835b602083106108185780518252601f1990920191602091820191016107f9565b6001836020036101000a0380198251168184511680821785525050505050509050019250505060206040518083038160008661646e5a03f1151561085b57600080fd5b5050604051805190506001856040518082805190602001908083835b602083106108965780518252601f199092019160209182019101610877565b6001836020036101000a0380198251168184511680821785525050505050509050019150509081526020016040519081900390206003015550505050565b6108dc611400565b60008210156108ea57600080fd5b60025482106108f857600080fd5b600280548390811061090657fe5b90600052602060002090018054600181600116156101000203166002900480601f0160208091040260200160405190810160405280929190818152602001828054600181600116156101000203166002900480156109a55780601f1061097a576101008083540402835291602001916109a5565b820191906000526020600020905b81548152906001019060200180831161098857829003601f168201915b50505050509050919050565b6109ba84611308565b156109c457600080fd5b336001856040518082805190602001908083835b602083106109f75780518252601f1990920191602091820191016109d8565b6001836020036101000a038019825116818451168082178552505050505050905001915050908152602001604051908190039020805473ffffffffffffffffffffffffffffffffffffffff1916600160a060020a0392909216919091179055826001856040518082805190602001908083835b60208310610a895780518252601f199092019160209182019101610a6a565b6001836020036101000a0380198251168184511680821785525050505050509050019150509081526020016040518091039020600101908051610ad0929160200190611382565b50816001856040518082805190602001908083835b60208310610b045780518252601f199092019160209182019101610ae5565b6001836020036101000a0380198251168184511680821785525050505050509050019150509081526020016040518091039020600201908051610b4b929160200190611382565b50600283836000604051602001526040518083805190602001908083835b60208310610b885780518252601f199092019160209182019101610b69565b6001836020036101000a038019825116818451161790925250505091909101905082805190602001908083835b60208310610bd45780518252601f199092019160209182019101610bb5565b6001836020036101000a0380198251168184511680821785525050505050509050019250505060206040518083038160008661646e5a03f11515610c1757600080fd5b5050604051805190506001856040518082805190602001908083835b60208310610c525780518252601f199092019160209182019101610c33565b6001836020036101000a03801982511681845116808217855250505050505090500191505090815260200160405190819003902060030155806001856040518082805190602001908083835b60208310610cbd5780518252601f199092019160209182019101610c9e565b6001836020036101000a0380198251168184511680821785525050505050509050019150509081526020016040518091039020600401908051610d04929160200190611382565b506002805460018101610d178382611412565b6000928352602090922001858051610d33929160200190611382565b505050505050565b6000610d4682611308565b1515610d5157600080fd5b6001826040518082805190602001908083835b60208310610d835780518252601f199092019160209182019101610d64565b6001836020036101000a03801982511681845116808217855250505050505090500191505090815260200160405190819003902054600160a060020a031692915050565b6002545b90565b610dd781611308565b1515610de257600080fd5b6001816040518082805190602001908083835b60208310610e145780518252601f199092019160209182019101610df5565b6001836020036101000a0380198251168184511680821785525050505050509050019150509081526020016040519081900390205433600160a060020a03908116911614610e6157600080fd5b60a0604051908101604052806000600160a060020a031681526020016020604051908101604052806000815250815260200160206040519081016040528060008152508152602001600060010260001916815260200160206040519081016040528060008152508152506001826040518082805190602001908083835b60208310610efd5780518252601f199092019160209182019101610ede565b6001836020036101000a0380198251168184511680821785525050505050509050019150509081526020016040519081900390208151815473ffffffffffffffffffffffffffffffffffffffff1916600160a060020a0391909116178155602082015181600101908051610f75929160200190611382565b50604082015181600201908051610f90929160200190611382565b5060608201516003820155608082015181600401908051610fb5929160200190611382565b50505050565b610fc3611400565b610fcc82611308565b1515610fd757600080fd5b6001826040518082805190602001908083835b602083106110095780518252601f199092019160209182019101610fea565b6001836020036101000a03801982511681845116808217855250505050505090500191505090815260200160405180910390206004018054600181600116156101000203166002900480601f0160208091040260200160405190810160405280929190818152602001828054600181600116156101000203166002900480156109a55780601f1061097a576101008083540402835291602001916109a5565b60006110b382611308565b15156110be57600080fd5b6001826040518082805190602001908083835b602083106110f05780518252601f1990920191602091820191016110d1565b6001836020036101000a0380198251168184511680821785525050505050509050019150509081526020016040518091039020600301549050919050565b611136611400565b61113f82611308565b151561114a57600080fd5b6001826040518082805190602001908083835b6020831061117c5780518252601f19909201916020918201910161115d565b6001836020036101000a03801982511681845116808217855250505050505090500191505090815260200160405180910390206002018054600181600116156101000203166002900480601f0160208091040260200160405190810160405280929190818152602001828054600181600116156101000203166002900480156109a55780601f1061097a576101008083540402835291602001916109a5565b611223611400565b61122c82611308565b151561123757600080fd5b6001826040518082805190602001908083835b602083106112695780518252601f19909201916020918201910161124a565b6001836020036101000a03801982511681845116808217855250505050505090500191505090815260200160405180910390206001018054600181600116156101000203166002900480601f0160208091040260200160405190810160405280929190818152602001828054600181600116156101000203166002900480156109a55780601f1061097a576101008083540402835291602001916109a5565b60006001826040518082805190602001908083835b6020831061133c5780518252601f19909201916020918201910161131d565b6001836020036101000a03801982511681845116808217855250505050505090500191505090815260200160405190819003902054600160a060020a0316151592915050565b828054600181600116156101000203166002900490600052602060002090601f016020900481019282601f106113c357805160ff19168380011785556113f0565b828001600101855582156113f0579182015b828111156113f05782518255916020019190600101906113d5565b506113fc92915061143b565b5090565b60206040519081016040526000815290565b81548183558181151161143657600083815260209020611436918101908301611455565b505050565b610dcb91905b808211156113fc5760008155600101611441565b610dcb91905b808211156113fc57600061146f8282611478565b5060010161145b565b50805460018160011615610100020316600290046000825580601f1061149e57506114bc565b601f0160209004906000526020600020908101906114bc919061143b565b505600a165627a7a7230582004fee235496917dc8da1ae14d39df60802d1ad4920637da3babec8dbd0b229c40029",
  "source": "pragma solidity ^0.4.17;\ncontract Arithmetica {\n    address owner;\n\n    function Arithmetica() public {\n        owner = msg.sender;\n    }\n\n    struct MathTemplate {\n        address owner;\n        string evaluation;\n        string assertions;\n\n        bytes32 checksum;\n        string resultsLocation;\n    }\n    mapping(string => MathTemplate) mathProblems;\n    string[] problems;\n\n    //////////////////////////////////////////////////////////////////////////////////\n    function createProblem(string name, string evaluation, string assertions, string resultsLocation) public {\n        require(!problemExists(name));\n        mathProblems[name].owner = msg.sender;\n        mathProblems[name].evaluation = evaluation;\n        mathProblems[name].assertions = assertions;\n\n        mathProblems[name].checksum = sha256(evaluation, assertions);\n        mathProblems[name].resultsLocation = resultsLocation;\n\n        problems.push(name);\n    }\n\n    function updateProblem(string name, string evaluation, string assertions, string resultsLocation) public {\n        require(problemExists(name));\n        require(msg.sender==mathProblems[name].owner);\n\n        mathProblems[name].evaluation = evaluation;\n        mathProblems[name].assertions = assertions;\n        mathProblems[name].resultsLocation = resultsLocation;\n        mathProblems[name].checksum = sha256(evaluation, assertions);\n    }\n\n    function deleteProblem(string name) public {\n        require(problemExists(name));\n        require(msg.sender==mathProblems[name].owner);\n\n        mathProblems[name] = MathTemplate(0x0,\"\",\"\",0x0,\"\");\n    }\n\n    //////////////////////////////////////////////////////////////////////////////////\n\n    function getProblemCount() public constant returns (uint) {\n        return problems.length;\n    }\n\n    function getProblemName(uint index) public constant returns (string) {\n        require(index >= 0);\n        require(index < problems.length);\n        return problems[index];\n    }\n\n    //////////////////////////////////////////////////////////////////////////////////\n\n    function getOwner(string name) public view returns (address) {\n        require(problemExists(name));\n        return mathProblems[name].owner;\n    }\n\n    function getEvaluation(string name) public view returns (string) {\n        require(problemExists(name));\n        return mathProblems[name].evaluation;\n    }\n\n    function getAssertions(string name) public view returns (string) {\n        require(problemExists(name));\n        return mathProblems[name].assertions;\n    }\n\n    function getChecksum(string name) public view returns (bytes32) {\n        require(problemExists(name));\n        return mathProblems[name].checksum;\n    }\n\n    function getResultsLocation(string name) public view returns (string) {\n        require(problemExists(name));\n        return mathProblems[name].resultsLocation;\n    }\n\n    /////////////////////////////////////////////////////////////////////////////////\n\n    function problemExists(string name) private view returns (bool) {\n        return (mathProblems[name].owner!=0x0);\n    }\n}\n\n",
  "sourcePath": "/Users/jonny/projects/arithmetica/arithmetica/contracts/Arithmetica.sol",
  "compiler": {
    "name": "solc",
    "version": "0.4.18+commit.9cf6e910.Emscripten.clang"
  },
  "schemaVersion": "1.0.1",
  "updatedAt": "2018-02-18T07:06:17.364Z"
}